:100000000C942A000C9434000C9434000C943400AA
:100010000C9434000C9434000C9434000C94340090
:100020000C9434000C9434000C9434000C94340080
:100030000C9434000C9434000C9434000C94340070
:100040000C9434000C9434000C9434000C94340060
:100050000C94340011241FBECFE5D8E0DEBFCDBF25
:100060000E9436000C94B5000C9400008FEF84BB06
:1000700087BB11BA83E082BB8FE39CE90197F1F75C
:1000800000C0000088E385BB82E088BBEFE9FFE0A9
:100090003197F1F700C0000018BA9CE095BB88BB0F
:1000A000EFE9FFE03197F1F700C0000018BA91E0E6
:1000B00095BB88BBEFE9FFE03197F1F700C0000086
:1000C00018BA96E095BB88BB8FE99FE00197F1F7DE
:1000D00000C0000018BA80E090E8980F95BB92E04D
:1000E00098BBEFE9FFE03197F1F700C0000018BAC4
:1000F00091E495BB93E098BBEFE9FFE03197F1F70E
:1001000000C0000091E098BB809916C0882311F0D0
:10011000815001C08FE091E095BB92E098BBEFE980
:10012000FFE03197F1F700C0000018BAEFECF7E0FC
:100130003197F1F700C000008199CECF8F3011F0D8
:100140008F5F01C080E091E095BB92E098BBEFE942
:10015000FFE03197F1F700C0000018BAEFE9FFE0C7
:0E0160003197F1F700C00000B7CFF894FFCF41
:00000001FF
